:020000040800F2
:100000000004002001020008715600087156000823
:1000100071560008715600087156000871560008A4
:1000200071560008715600087156000831350008F5
:100030007156000871560008715600087156000884
:100040007156000871560008715600087156000874
:100050007156000871560008715600087156000864
:100060007156000871560008715600087156000854
:100070007156000871560008715600087156000844
:100080007156000871560008715600087156000834
:100090007156000871560008715600087156000824
:1000A0007156000871560008715600087156000814
:1000B000A13A0008715600087156000871560008F0
:1000C00071560008715600087156000871560008F4
:1000D0007156000871560008514800087156000812
:1000E00071560008715600087156000871560008D4
:1000F00071560008715600087156000871560008C4
:1001000071560008715600087156000871560008B3
:1001100071560008715600087156000871560008A3
:100120007156000871560008715600087156000893
:100130007156000871560008715600087156000883
:100140007156000871560008715600087156000873
:100150007156000871560008715600087156000863
:100160007156000871560008715600087156000853
:100170007156000871560008715600087156000843
:100180007156000871560008715600087156000833
:100190007156000871560008715600087156000823
:1001A000000000000000000000000000000000004F
:1001B000000000000000000000000000000000003F
:1001C000000000000000000000000000000000002F
:1001D000000000000000000000000000000000001F
:1001E000000000000000000000000000000000000F
:1001F00000000000000000000000000000000000FF
:1002000072B6264880F30988022080F31488BFF371
:100210006F8F03F04DF903F073F821482149224A0A
:1002200091423CBF41F8040BFFF7FABF1F491B4A3C
:1002300091423CBF41F8040BFFF7FABF1C491D4A2D
:100240001D4B9A423EBF51F8040B42F8040BFFF7D6
:10025000F8BF002019491A4A91423CBF41F8040BEB
:10026000FFF7FABF03F0E4F803F01AF9154C164D46
:10027000AC4280F2058054F8041B8847FFF7F8BFB2
:1002800005F0FEF9114C124DAC4280F2058054F895
:10029000041B8847FFF7F8BF03F0FAB800080020F6
:1002A0005555555500000020000400200004002092
:1002B000E06A000800080020B8080020B808002004
:1002C0007813002000020008000200080002000865
:1002D0000002000800000000000000000000000014
:1002E0002DE9F04FC1F80CD0C3689D46BDE8F08FF2
:1002F000002383F311882846A047002003F060F80C
:1003000003F08EF800DFFEE70000000000000000B0
:1003100040F6100140F6A40240F60003C2F20002CB
:10032000C2F20003C2F200010020096049601260BD
:10033000526090601B605B6098607047AFF3008014
:1003400040F63003C2F2000340F69812C2F20002F7
:10035000111DDA609A615A6143F2E142C0F600026F
:100360000420DA6100221B605B60986019611A62E8
:10037000704700BFAFF30080AFF30080AFF30080A1
:1003800040F67C03C2F2000340F69812C2F200026B
:10039000101DDA609A615A6143F2E1420021C0F611
:1003A00000021B605B6099601861DA611962704736
:1003B00040F61002C2F2000240F6A403C2F20003AB
:1003C0001260526000221B605B609A60704700BF41
:1003D00040F61002C2F2000240F6A403C2F200038B
:1003E0001260526000221B605B609A60704700BF21
:1003F00040F6A403C2F2000300221B605B609A6017
:10040000704700BFAFF30080AFF30080AFF3008010
:1004100040F6A40240F60003C2F20002C2F200035A
:1004200000211260526091601B605B6099607047B0
:1004300040F6A403C2F2000300221B605B609A60D6
:10044000704700BFAFF30080AFF30080AFF30080D0
:1004500040F67413C2F2000300221B605B609A60D6
:10046000704700BFAFF30080AFF30080AFF30080B0
:1004700040F65403C2F2000340F69812C2F20002A2
:1004800010B402F114041A60DA609A60052203F1D4
:100490001C0003F110015A6200225C60D8611862EE
:1004A000196159619A6110BC704700BFAFF30080B9
:1004B00040F62403C2F2000300221B605B609A60D6
:1004C000704700BFAFF30080AFF30080AFF3008050
:1004D00040F62403C2F2000300221B605B609A60B6
:1004E000704700BFAFF30080AFF30080AFF3008030
:1004F00040F62403C2F2000300221B605B609A6096
:10050000704700BFAFF30080AFF30080AFF300800F
:1005100040F61813C2F2000301221B605B609A6070
:10052000704700BFAFF30080AFF30080AFF30080EF
:1005300040F61813C2F2000300221B605B609A6051
:10054000704700BFAFF30080AFF30080AFF30080CF
:1005500040F6F803C2F2000300224FF4A4711A60BF
:1005600059609A60704700BFAFF30080AFF300801E
:1005700040F61803C2F2000300224FF4A4711A607F
:1005800059609A60704700BFAFF30080AFF30080FE
:1005900040F6B80340F69812C2F20003C2F200021D
:1005A00010B4002103F110004FF4CC6419609A607C
:1005B000D9601160546018615861996110BC70472E
:1005C000704700BFAFF30080AFF30080AFF300804F
:1005D00008B5202383F31188064B1868984205D08C
:1005E0000268002153601A6004F04AFD002383F37F
:1005F000118808BD10080020AFF30080AFF3008021
:1006000070B541F2E013C2F2000382B09B6940F67C
:1006100098159E6845F6E050C2F20005C0F600004D
:1006200041F28133721C00904FF4A471C0F60003B4
:10063000284604F06DFD41F23034C2F200044FF45C
:10064000A471206045F6E450C0F6000040F6713316
:10065000B21C0090C0F60003681804F059FD6060F9
:1006600045F6E850C0F6000043F6F1034FF4A471DC
:10067000F21CC0F60003009005F5247004F048FD5C
:10068000A060FFF7A5FFFFF7A3FF03F081FC45F68D
:10069000EC510120C0F6000102B0BDE8704002F04C
:1006A000AFBF00BFAFF30080AFF30080AFF30080B7
:1006B0002DE9F0414E4E4F4FB2694F4B92684F4873
:1006C0004F4D504C82B04FF4A4710532009704F0A6
:1006D0001FFDB3699A6828604B48474B00904FF460
:1006E000A4710132494804F013FDB3699A68686047
:1006F0004748414B00904FF4A4710332454804F041
:1007000007FDB3699A68A86043483B4B00904FF4DB
:10071000A4710432414804F0FBFCB3699A68E860B4
:100720003F48354B00904FF4A47102323D4804F02D
:10073000EFFC2861204604F0D3FC204604F0D0FCF6
:10074000204604F0CDFC204604F0CAFC204604F00C
:10075000C7FC03F01DFC0120334902F051FF804625
:1007600010B102B0BDE8F081B269234B9268234812
:1007700000974FF4A471053204F0CAFC20232860CE
:1007800083F31188A3680133002BA36026DDA368DF
:100790001C4A0133002BA36017DD04F039FC00254F
:1007A00085F3118803F0F4FB202383F31188A168FB
:1007B00002204B1E5942594102F052FF10B980F3FA
:1007C0001188CEE785F31188CBE7106803685A607B
:1007D000136004F035FD00230362DEE72068036840
:1007E0005C60236004F02CFDC0F82080CFE700BFE0
:1007F000E0110020E05D0008213900089809002080
:100800003013002024080020E85D0008E00A0020E2
:10081000E45D0008280C0020F05D0008700D002049
:10082000F85D0008B80E0020F45D0008AFF300800A
:10083000054B1868984206D0026800215360016297
:100840001A6004F0FDBC704710080020AFF3008070
:10085000F0B541F2E013C2F2000383B09B6940F6A9
:1008600098169F6840F6713545F6F851C2F20006B9
:10087000C0F60005C0F600017A1C2B4600913046F8
:100880004FF4A47104F044FC41F23034C2F200048D
:1008900045F6F051C0F600012060BA1C2B460091CD
:1008A00006F5A4704FF4A47104F032FC45F6E4514F
:1008B000C0F600016060FA1C2B46009106F524701A
:1008C0004FF4A47104F024FC45F6E851C0F6000191
:1008D000A0603A1D2B46009106F576704FF4A47186
:1008E00004F016FC45F6E053C0F60003E060009308
:1008F00006F5A4602B464FF4A4717A1D04F008FCA1
:100900002023206183F31188FFF792FFFFF790FF08
:10091000FFF78EFFFFF78CFFFFF78AFF04F078FBED
:10092000002383F3118803F033FB45F6F4510120D3
:10093000C0F6000103B0BDE8F04002F061BE00BFA8
:1009400030B52C4B2C489A692C4B95682C4A2D4C71
:1009500083B04FF4A47100926A1C04F0D9FB2A4BB7
:100960002060AA1C00934FF4A471244B274804F084
:10097000CFFB274B6060EA1C00934FF4A4711F4B20
:10098000244804F0C5FB244BA0602A1D00934FF4BB
:10099000A4711A4B214804F0BBFB214BE0604FF4DB
:1009A000A47100936A1D154B1E4804F0B1FB20236F
:1009B000206183F311881C4C2368A34218BF6FF099
:1009C000010509D01A6818465460226004F038FC0A
:1009D00023680562A342F5D104F01AFB002383F3D8
:1009E000118803F0D5FA1149012003B0BDE8304069
:1009F00002F006BEE011002098090020710B0008EB
:100A0000F85D000830130020F05D0008E00A0020C7
:100A1000E45D0008280C0020E85D0008700D00204F
:100A2000E05D0008B80E002010080020F45D00080A
:100A300010B5202383F31188144CA3680133002BD5
:100A4000A36018DD013B002BA360104A06DB04F015
:100A5000DFFA0020002383F3118810BD0C4953688E
:100A60008C69052084E80C0022621C60546004F04C
:100A70008FFB206AEEE7206803685C60236004F067
:100A8000DFFB0022A3680262DCE700BF240800202D
:100A9000E0110020AFF30080AFF30080AFF30080DF
:100AA00030B5204A204B926920489268204C83B090
:100AB00000254FF4A4710132009504F029FB1D4B71
:100AC0001860FFF7B5FF216801200B1B59425941FF
:100AD00002F0C6FD08B103B030BDA1680220B1EB41
:100AE000050CDCF1000151EB0C0102F0B9FD00280E
:100AF000F1D1FFF79DFF21680320B1EB040EDEF179
:100B0000000151EB0E0102F0ABFD0028E3D1A1681A
:100B100004204A1B5142514103B0BDE8304002F06D
:100B20009FBD00BFE011002071350008980900202A
:100B30002408002030130020AFF30080AFF30080C2
:100B4000074B10B59C69202383F31188032004F020
:100B50001FFB236A002BF9D0002383F3118810BDFB
:100B6000E0110020AFF30080AFF30080AFF300800E
:100B7000F8B50746154804F0A3FC202383F3118839
:100B8000134B9C69A66B304604F0E2FB114B1D46EB
:100B900023621B68AB4203D09968A2689142F8D2E5
:100BA0005A682360626014605C60072004F0F0FA09
:100BB000304604F025FC002383F31188387802F0D6
:100BC0004FFE0248BDE8F84004F0EABBA40800204C
:100BD000E011002010080020AFF30080AFF3008088
:100BE00038B50A4D044604F093F904F091F904F085
:100BF0008FF904F08DF92268AB69043222605B7FC3
:100C000003F00403DBB2002BEDD038BDE01100206F
:100C100010B5064C02E0064804F0F2FAA3695B7FC7
:100C200003F00403DBB2002BF5D010BDE01100206F
:100C300018090020AFF30080AFF30080AFF300800D
:100C400045F6FC5010B5C0F6000045F60C64C0F641
:100C5000000402F095FE4FF4A87002F0A1FE2046B9
:100C600002F076FE45F61460C0F6000002F088FE41
:100C7000442002F095FE204602F06AFE45F624600C
:100C8000C0F6000002F07CFE142002F089FE20462F
:100C900002F05EFE45F63460C0F6000002F070FE21
:100CA0000C2002F07DFE204602F052FE45F6446024
:100CB000C0F6000002F064FE042002F071FE20463F
:100CC00002F046FE45F65460C0F6000002F058FE01
:100CD000142002F065FE204602F03AFE45F66460FC
:100CE000C0F6000002F04CFE102002F059FE204633
:100CF00002F02EFE45F67460C0F6000002F040FEE1
:100D0000082002F04DFE204602F022FE45F68460E7
:100D1000C0F6000002F034FE242002F041FE20461E
:100D200002F016FE45F69460C0F6000002F028FEC0
:100D3000282002F035FE2046BDE8104002F008BE33
:100D4000F0B41E4D2E464FF0804756F81C4F0361FD
:100D5000012998BF0221B442C2607B6A21D0AE6AE9
:100D6000A2689B1BCB1818D293423CBF9E197E638E
:100D7000934204D924689B1AA2689A42FAD38360EA
:100D8000A16862680460CB1AA3604FF0FF33426031
:100D9000106060606B62F0BC704724689B1AA268A8
:100DA000E6E7AB62CA180023E86128620460446089
:100DB00081607A633B610223FB60ECE7E011002075
:100DC00070B5064682B00D460E484FF4A47104F08B
:100DD00087FB044690B1202383F311880A4B0095CA
:100DE00032464FF4A47104F0BBF80123437700218D
:100DF000044604F045F9002383F31188204602B02D
:100E000070BD00BFD808002081380008AFF3008013
:100E100070B52C4B2C489B692C4C9D6882B001A965
:100E200002F09EFE2A49681EFFF7CAFF294920608A
:100E3000A81EFFF7C5FF69466060234802F090FED8
:100E40000099214804F04CFB23490646E81EFFF7B1
:100E5000B7FFA060304602F0A3FE216829B16168A7
:100E600019B1A168002923D00021012002F0F8FB6C
:100E700008B102B070BD03F08BF80220174902F0F0
:100E8000BFFB0028F5D169460F4802F069FE013822
:100E900041424141032002F0E3FB0028E9D19DE8F3
:100EA0000A000420CA1A5142514102F0D9FBE0E77E
:100EB000E368002BD9D12169D1F1010138BF0021AC
:100EC000D3E700BFE0110020D80800203013002035
:100ED000E05D0008E85D0008E45D0008A45E00082D
:100EE000F0B50F4C83B0064620460F4602F020FEB8
:100EF000054690B1202383F311880A4B616800975F
:100F0000324604F02DF8022343770464002105469D
:100F100004F0B6F8002383F31188284603B0F0BD2F
:100F2000F808002081380008AFF30080AFF300809C
:100F3000202383F3118841F2E013C2F20003002260
:100F40009B69586B5A6382F311887047AFF3008036
:100F5000FFF7EEBFAFF30080AFF30080AFF3008088
:100F6000FFF7E6BFAFF30080AFF30080AFF3008080
:100F7000FFF7DEBFAFF30080AFF30080AFF3008078
:100F80000B4B10B59C69202383F31188636B33B935
:100F90004FF0FF3323620A2004F0FAF8636B5842E3
:100FA000184023EA00036363002383F3118810BD14
:100FB000E0110020AFF30080AFF30080AFF30080BA
:100FC0000B4B10B59C69202383F31188606B30B9FB
:100FD0004FF0FF330A20236204F0DAF8606B636B92
:100FE00023EA00036363002383F3118810BD00BF6D
:100FF000E0110020000000000000000000000000E0
:101000000C4B596A002910B510DD9A685C680139EB
:10101000596242F8040BA2429A6028BF1A68064837
:1010200028BF9A6004F0A4FA002010BD4FF0FF30F2
:1010300010BD00BF5408002064080020AFF30080FA
:101040000C4B596A002910B510DDDA681C68043AA7
:101050000139A2425962DA6002D25A68043ADA606F
:101060001060054804F084FA002010BD4FF0FF30F6
:1010700010BD00BF5408002064080020AFF30080BA
:101080000C4B9969002910B511DDDA685C680139EB
:10109000996152F8041BA2420160DA6028BF1A6805
:1010A000054828BFDA6004F063FA002010BD4FF055
:1010B000FF3010BD54080020700800200000000020
:1010C00040F6D80340F69812C2F20003C2F20002C2
:1010D00010B4002103F110004FF4CC6419609A6041
:1010E000D9601160546018615861996110BC7047F3
:1010F00040F6D80340F69812C2F20003C2F2000292
:1011000010B4002103F110004FF4CC6419609A6010
:10111000D9601160546018615861996110BC7047C2
:1011200070B52026002504F04BF8046B86F3118877
:10113000214603F0A5FF85F31188002CF3D170BD83
:1011400070B5314B314C05222025002085F31188E4
:1011500021682360196080F311886168013A0B44AB
:10116000F4D10525294802F0E3FC011C18BF012138
:10117000012002F075FA002834D1013DF2D1234854
:1011800002F0D6FCD0F1010138BF0021022002F0AC
:1011900067FA38BB1E4B202603F1140053F8042FC6
:1011A00086F3118821681160226085F311888342DB
:1011B000F4D10524154D284602F0BAFC011C18BFD5
:1011C0000121032002F04CFA60B9013CF2D128461B
:1011D00002F0AEFCD0F1010138BF0021042002F082
:1011E0003FFA00B170BD10236B600A4B2C6028469B
:1011F000AB6002F09DFCD0F1010138BF0021052059
:10120000BDE8704002F02CBA9809002018080020B0
:10121000CC5F0008F1340008AFF30080AFF300802A
:10122000304A31499269F8B5304B956803F110079F
:101230002026002053F8042F86F311880C681460D0
:101240000A6080F31188BB42F4D12949294C681EF9
:10125000FFF746FE28492060A81EFFF741FE2749F8
:101260006060E81EFFF73CFE2549A060281FFFF7DD
:1012700037FE2449E060681FFFF732FE21682061D5
:1012800049B1616839B1A16829B1E16819B1D0F1FA
:10129000010138BF0021012002F0E2F900B1F8BDE0
:1012A00002F076FE0220184902F0AAF90028F6D1D1
:1012B00004240D4802F03CFC011C18BF012103204E
:1012C00002F0CEF90028EAD1013CF2D1064802F042
:1012D0002FFCD0F1010138BF00210420BDE8F84007
:1012E00002F0BEB9E0110020F8080020CC5F000831
:1012F000E05D000830130020E85D0008E45D0008B0
:10130000F05D0008F85D0008B05E0008AFF30080F3
:101310001A4AD369834210B40FD0416803680B6046
:1013200003681C32596000219342C16003D09A685F
:10133000816852189A6010BC7047196810460024E2
:1013400040F81C1F8142DC6008BF4FF080434860BA
:1013500008BFDC60EFD08C689B68906A1B194FF067
:1013600080428B60516A081A8342E4D91B1A012B10
:1013700098BF02235B185363DDE700BFE011002034
:101380002DE9F04180461C4804F09AF81B4804F00F
:1013900097F8202383F31188194EB3699F6B384661
:1013A00003F0D6FF174BB2691D4613621B68AB42B0
:1013B00003D09C6891688C42F8D2596813605160E0
:1013C00007205A600A6003F0E3FEB3691B6A013329
:1013D00002D0384604F014F8002383F3118898F8FB
:1013E000000002F03DFA054803F0DAFF0248BDE8CC
:1013F000F04103F0D5BF00BF00080020A408002082
:10140000E011002010080020AFF30080AFF300804F
:1014100030B54B1C87B0054611D00B4C0B4AA36965
:1014200001A8FFF78DFC284603F0B2FE049B13B120
:1014300001A8FFF76DFFA369186A07B030BD03F07C
:10144000A7FE014CF7E700BFE0110020114E000895
:1014500008B50146202383F311880820FFF7D8FF41
:10146000002383F3118808BDAFF30080AFF3008041
:1014700008B50120FFF7ECFF202383F311884FF01C
:101480008043586A002383F3118808BDAFF30080BE
:1014900008B54FF4FA70FFF7DBFF202383F31188C0
:1014A00040F62400C2F2000004F062F803F0B0FD40
:1014B000002383F3118808BDAFF30080AFF30080F1
:1014C0002DE9F0418B4D8C4BAA698C4894688C4A6D
:1014D0008C4E82B0671C00924FF4A4713A4603F020
:1014E00017FE30608848894B009004F102084FF4E1
:1014F000A4714246864803F00BFE7060854803F0F5
:10150000DFFFAB6999680120B4EB010EDEF1000149
:1015100051EB0E0102F0A4F810B102B0BDE8F08169
:101520004FF47A70FFF794FFAB69996802207A1A3A
:101530005142514102F094F80028EED1764803F070
:10154000BFFFAB69996803207B1A5942594102F0E9
:1015500087F80028E1D14FF47A70FFF779FFAB6983
:1015600099680420B8EB010CDCF1000151EB0C018F
:1015700002F076F80028D0D1674803F011FFAB697C
:1015800099680520B7EB010EDEF1000151EB0E0169
:1015900002F066F80028C0D14FF47A70FFF758FFC8
:1015A000AB69996806207A1A5142514102F058F805
:1015B0000028B2D103F0A4FEAB6999680720631A32
:1015C0005942594102F04CF80028A6D102F0E0FC43
:1015D000524A494B00924FF4A4713A46474803F0EF
:1015E00097FD30604E48494B00904FF4A47142463D
:1015F000474803F08DFD7060464803F061FFAB691A
:1016000099680820B4EB010CDCF1000151EB0C01EE
:1016100002F026F8002880D14FF47A70FFF718FF07
:10162000AB6999680920B7EB010EDEF1000151EBBF
:101630000E0102F015F800287FF46FAF364803F072
:101640003FFFAB6999680A207A1A5142514102F072
:1016500007F800287FF461AF4FF47A70FFF7F8FEC7
:10166000AB6999680B20B8EB01035942594101F06D
:10167000F7FF064600287FF450AF202383F311883C
:10168000254803F065FE03F0C3FC86F31188AB69BF
:1016900099680C20B7EB010CDCF1000151EB0C0157
:1016A00001F0DEFF00287FF438AF4FF47A70FFF7C7
:1016B000CFFEAB6999680D20B7EB010EDEF100019A
:1016C00051EB0E0101F0CCFF00287FF426AF03F0B0
:1016D00017FEAB6999680E20621A5142514101F020
:1016E000BFFF00287FF419AF02B0BDE8F04102F05F
:1016F0004FBC00BFE01100206117000898090020CE
:10170000E85D000830130020E05D00083117000894
:10171000E00A002000080020A4080020F05D000876
:10172000E45D0008AFF30080AFF30080AFF300800A
:1017300010B540F6A404C2F2000440F2DC50FFF7FA
:1017400087FE204603F0BCFE2046BDE8104003F0B3
:1017500027BE00BFAFF30080AFF30080AFF300807F
:1017600010B540F60004C2F200044FF4FA70FFF71F
:101770006FFE204603F0A4FE2046BDE8104003F0B3
:101780000FBE00BFAFF30080AFF30080AFF3008067
:1017900010B504464FF4FA70FFF75AFE202383F386
:1017A00011880121204603F07BFD03F031FC00236A
:1017B00083F3118810BD00BFAFF30080AFF300804A
:1017C000484B49499B69986810B50138FFF7F8FA0A
:1017D00004460120A17FB1EB000EDEF1000151EBC8
:1017E0000E0101F03DFF00B110BD202383F31188ED
:1017F000A37F0133A37780F31188A17F02200A1A07
:101800005142514101F02CFF0028EDD1204602F059
:1018100037FBA17F03204B1E5942594101F020FFA5
:101820000028E1D1204602F063FB0146042001F0CC
:1018300017FF0028D8D1204602F05AFB01460520A8
:1018400001F00EFF0028CFD1204602F019FBA17F46
:101850000620D1F1010138BF002101F001FF00286D
:10186000C2D1217F0720D1F1010138BF002101F051
:10187000F7FE0028B8D1204602F03AFB01460820C6
:1018800001F0EEFE0028AFD1204602F031FB014608
:10189000092001F0E5FE0028A6D14FF4FA70FFF709
:1018A000D7FD217F0A20B1F10F0CDCF1000151EBD3
:1018B0000C0101F0D5FE002896D1204602F018FB5D
:1018C00001460B2001F0CCFE00288DD1204602F00D
:1018D0000FFB80F00101C9B20C20BDE8104001F0FF
:1018E000BFBE00BFE0110020E05D0008AFF3008044
:1018F00008B50B4B0B4A9B694FF480644FF40055BD
:101900009A61C4F600042E46668341F28830FFF7E0
:101910009FFD258341F28830FFF79AFDF4E700BF71
:10192000E0110020B85E0008AFF30080AFF3008044
:1019300010B4024651B1074B44689B69042083E808
:1019400014002360536010BCFFF762BD4FF0FF30FE
:1019500010BC7047E0110020AFF30080AFF30080AF
:1019600070B5202304460E4683F31188C36903B182
:101970009847A5682046314635B9FFF7D9FF0028BA
:10198000F7DA85F3118870BDA168A369226901396E
:10199000A16013F8010B9342A36124BFE368A36124
:1019A000002383F3118870BDAFF30080AFF3008094
:1019B0000C30FFF7D5BF00BFAFF30080AFF300805E
:1019C0000C304FF0FF31FFF7CBBF00BFAFF300800B
:1019D00040F67C00C2F200004FF4FA61FFF7C0BF8E
:1019E0002DE9F84F04461D46D0F81C904FF0200B0F
:1019F0008BF31188002601F1010801EB020AB9F10D
:101A0000000F01D02046C847A7682046294647B99D
:101A1000FFF78EFF0028F7D087F311883046BDE826
:101A2000F88FA268A369013AA26013F8012B08F8A5
:101A3000012C2269A361934224BFE368A3610023C0
:101A400083F311880136D045E8D08BF3118808F173
:101A50000108D4E7AFF30080AFF30080AFF300805C
:101A60000C30FFF7BDBF00BFAFF30080AFF30080C5
:101A70000C304FF0FF33FFF7B3BF00BFAFF3008070
:101A8000F8B504460F461646202383F31188A5684F
:101A90002046314635B9FFF74BFF0028F7DA85F3CA
:101AA0001188F8BDA2686369013AA26003F8017B5E
:101AB00022696361934224BFE3686361E3690BB108
:101AC00020469847002080F31188F8BDAFF30080CE
:101AD0003030FFF7D5BF00BFAFF30080AFF3008019
:101AE00030304FF0FF32FFF7CBBF00BFAFF30080C5
:101AF00040F63000C2F2000000214FF4FA62FFF716
:101B0000BFBF00BFAFF30080AFF30080AFF3008032
:101B10002DE9F04F044683B00F4615469B46D0F89A
:101B20001C804FF0200A8AF311880026B146A36872
:101B30002046E3B1A2686369013AA26017F8012B5D
:101B400003F8012B22696361934224BFE368636158
:101B5000B8F1000F00D0C04789F311880136013D6C
:101B60000FD08AF31188A3682046002BE2D12046CB
:101B700059460193FFF7DCFE019B0028D7D083F381
:101B80001188304603B0BDE8F08F00BFAFF300808E
:101B90003030FFF7BDBF00BFAFF30080AFF3008070
:101BA00030304FF0FF33FFF7B3BF00BFAFF300801B
:101BB00003468068421E002A10B40C469A6002DB7D
:101BC000002010BC704759B1074A926913625868E7
:101BD00013605060026005205A6010BCFFF718BC0B
:101BE00098604FF0FF30ECE7E0110020AFF3008089
:101BF00038B50546202383F311880D48FFF7D8FF39
:101C0000044680B90B4BDA68596852F8040B8A42D3
:101C10002860DA6028BF1A68074828BFDA6003F036
:101C2000A7FC03F0F5F9002383F31188204638BDA3
:101C30006408002054080020700800200000000004
:101C400008B50B4B00221A70202383F31188094832
:101C5000C3680BB1FFF75CFB00230648064A42F25B
:101C60001071FFF76DF8002383F3118808BD00BFE2
:101C7000240900200409002001350008AFF300808A
:101C8000F0B5124B124F9B6983B09E68FFF7F0FBD3
:101C9000FFF7D6FF0024013625460E4B00950E486F
:101CA0004FF4A471324603F033FA3B780134002B31
:101CB000F3D00A4801F064FE204601F071FE0848A6
:101CC00003B0BDE8F04001F043BE00BFE0110020CA
:101CD000240900201134000898090020D05E000873
:101CE000E05E0008AFF30080AFF30080AFF3008048
:101CF00070B541F2E013C2F2000382B09B699A68AA
:101D0000009340F6981043F251534FF4A4710132FE
:101D1000C0F60003C2F2000003F0FAF941F23033DA
:101D2000C2F200032024186003F04AFA066B84F321
:101D30001188314603F0A4F9002585F31188F0B22B
:101D400001F08EFD03F03CFA066B84F311883146F6
:101D500003F096F985F31188F0B201F081FD03F0EC
:101D60002FFA066B84F31188314603F089F985F365
:101D70001188F0B201F074FD45F6EC510120C0F677
:101D8000000102B0BDE8704001F03ABCAFF3008042
:101D90002DE9F041244A254B926925489268DFF8E5
:101DA000A08082B000254FF4A4710132009503F0A9
:101DB000AFF9204B04461860FFF75AFBFFF740FFCE
:101DC00020272E4687F311880021204603F058F97A
:101DD0002046002103F054F92046002103F050F979
:101DE0002046002103F04CF986F3118898F8003062
:101DF0000435002BE6D0202383F311884FF0FF3108
:101E0000204603F03DF9002383F3118802F0C0F867
:101E1000094801F0B5FD680001F0C2FD074802B0B5
:101E2000BDE8F04101F094BDE0110020410B000835
:101E30009809002030130020D05E0008EC5E0008F6
:101E400024090020AFF30080AFF30080AFF30080DF
:101E50002DE9F041202582B085F31188564C0021F0
:101E60002046FFF7A5FE0023014683F311880120D9
:101E7000B1F1FF335942594101F0F2FB10B102B008
:101E8000BDE8F08121680220B1EB040CDCF1000117
:101E900051EB0C0101F0E4FB0028F0D1A168032014
:101EA000D1F1010138BF002101F0DAFB064600281C
:101EB000E5D1424A424B92694248926800964FF4FB
:101EC000A471013A03F024F93F4B186085F311889F
:101ED00041F288312046FFF76BFE074686F31188F2
:101EE00002F056F80420D7F1010138BF002101F0BB
:101EF000B7FB0028C3D121680520B1EB040EDEF149
:101F0000000151EB0E0101F0ABFB0028B7D1A16835
:101F10000620D1F1010138BF002101F0A1FB80466C
:101F20000028ACD1FFF7A4FA85F311884FF0804365
:101F30005F6A88F311884126304601F091FC85F3F1
:101F400011884FF4FA711C48FFF732FE014688F3FE
:101F500011880720B1F1FF325142514101F080FB5D
:101F600000288CD1216808200B1B5942594101F0EF
:101F700077FB002883D1A1680920D1F1010138BF86
:101F8000002101F06DFB0136F6B200287FF477AF37
:101F9000462ED1D10A200D4901F032FB00287FF4F2
:101FA0006EAF0B2007F6C41107F6D81202B0BDE8D9
:101FB000F04101F005BB00BF24080020E011002023
:101FC000911400089809002030130020F45D0008E7
:101FD00008B5202383F31188002282F3118883F34C
:101FE0001188EFF311831BB903F032FB03F038F8CB
:101FF000002383F3118808BDAFF30080AFF30080A6
:1020000010B586B0EFF311831BB903F021FB03F089
:1020100027F8202383F31188EFF311831BB903F012
:1020200017FB03F01DF8002383F31188EFF31183EE
:1020300013B9202383F31188EFF3118313B92023FD
:1020400083F31188002383F31188202282F31188FF
:10205000EFF311820AB183F31188EFF3118313B107
:10206000002383F3118800230493202383F3118832
:10207000049B01AC13B12046FFF74AF92046012129
:102080000B4A0023FEF75CFE002484F311880A202B
:10209000FFF7DEF9202383F31188049984F3118874
:1020A00001200A1B5142514101F0DAFA06B010BD7D
:1020B000D11F0008AFF30080AFF30080AFF30080C2
:1020C000F8B5FFF7D5F9FFF7BBFD0024144F202624
:1020D000254686F31188012100231248124AFEF793
:1020E0002FFE42F21071104A10480023FEF728FE1E
:1020F0000C48FFF70DF90D48FFF70AF985F3118831
:102100003B780134002BE4D0094801F039FC600031
:1021100001F046FC0748BDE8F84001F019BC00BFDB
:102120002409002028090020C105000860090020BA
:10213000D05E0008F85E0008AFF30080AFF30080C7
:102140002DE9F041334C24608AB0202181F31188BD
:102150002368314A0AAD966945F8283D0127256074
:1021600000234FF0FF30019602970393049083F30E
:10217000118881F311882168926908930AAE4FF0A3
:10218000020846F8141D26600692CDF81C800990BE
:1021900083F311882168091B18BF0121384601F01B
:1021A0005FFA10B10AB0BDE8F0812046694602F03E
:1021B00067FE2168091B18BF0121404601F050FA53
:1021C0000028EFD12046314602F05AFE2168032054
:1021D000B1EB040EDEF1000151EB0E0101F040FA0B
:1021E0000028DFD10D4E0446072501E0013465B11A
:1021F00025FA04F3D907F9D507FA04F256F8243082
:10220000204625EA02059847F0E70420044901F03A
:10221000F7F9C7E7B4080020E0110020C05E00080D
:10222000EC5D0008AFF30080AFF30080AFF30080F7
:10223000F8B5FFF71DF9202686F311884FF0804589
:1022400000236C6A83F311884FF47A70FFF700F96A
:10225000012004F57A7104F2EB3201F0B1F900B11A
:10226000F8BD86F311886C6A80F311884FF47A7098
:10227000FFF7EEF8022004F57A7104F2EB3201F078
:102280009FF90028ECD186F311886C6A80F31188DD
:1022900042F21070FFF7DCF804F51C5202F1100155
:1022A0000320133201F08CF90028D9D186F311886C
:1022B0006F6A80F3118807F57A7486F31188696A6A
:1022C000611A0AD1002383F311880420214607F202
:1022D000EB32BDE8F84001F073B90820FFF798F839
:1022E000F0E700BFAFF30080AFF30080AFF30080F2
:1022F00038B5FFF7BDF8FFF7A3FC144D00241448D0
:1023000003F0DEF8124803F04BF8114803F0D8F858
:102310000F4803F045F80E4803F0D2F80C4803F0DC
:102320003FF80B4803F0CCF8094803F039F82B7854
:102330000134002BE3D0074801F022FBA00001F09C
:102340002FFB0548BDE8384001F002BB24090020FE
:1023500074090020D05E0008045F0008AFF300801D
:1023600038B5FFF785F8FFF76BFC144D00241448CF
:1023700002F046FF124802F0B3FE114802F040FF9F
:102380000F4802F0ADFE0E4802F03AFF0C4802F092
:10239000A7FE0B4802F034FF094802F0A1FE2B789B
:1023A0000134002BE3D0074801F0EAFAA00001F065
:1023B000F7FA0548BDE8384001F0CABA2409002000
:1023C00018090020D05E0008145F0008AFF30080F9
:1023D0002DE9F04141F2E01884B004ACC2F20008EB
:1023E000002344F8043DFFF743F8D8F8183040F6CE
:1023F00098169A68009440F6E137C2F20006C0F6DB
:102400000007013A3B464FF4A471304602F080FECB
:10241000D8F8183041F23035C2F200059A682860C9
:102420004FF4A471013A3B467018009402F070FE1C
:10243000D8F8183068609A680094013A3B464FF427
:10244000A47106F5247002F063FED8F81830A86075
:102450009A680094013A3B464FF4A47106F57670F1
:1024600002F056FED8F81830E8609A6800944FF4ED
:10247000A471013A3B4606F5A46002F049FE2861CA
:1024800042F21070FEF7E4FF01F082F801F080FDE7
:1024900045F6D060C0F6000001F072FA039801F032
:1024A0007FFA45F6EC60C0F6000001F051FA04B086
:1024B000BDE8F081AFF30080AFF30080AFF30080A0
:1024C0002DE9F0413A4E3B4BB2693B4892683B4D97
:1024D000DFF80C8182B000244FF4A471053200941F
:1024E00002F016FEB36928609A683548314B0094B3
:1024F0004FF4A471043202F00BFEB36968609A686D
:1025000030482C4B00944FF4A471033202F000FECB
:10251000B369A8609A682C48264B00944FF4A471C4
:10252000023202F0F5FDB269224B9268E8604FF486
:10253000A47101320094254802F0EAFD2861FEF7FB
:1025400097FFFFF77DFB2027264687F31188204859
:10255000002103F01DF8002502F05AFD86F31188D2
:1025600098F800300134002BEFD001F011F820234F
:1025700083F311881648294603F00AF802F048FD53
:1025800085F3118801F004FD124801F0F9F92046A5
:1025900001F006FA104801F0F3F904EB44004000A2
:1025A00001F0FEF90D4802B0BDE8F04101F0D0B9EC
:1025B000E0110020110C00089809002030130020C1
:1025C000E00A0020280C0020700D0020B80E00202A
:1025D00018090020D05E0008245F0008EC5E0008A7
:1025E00024090020AFF30080AFF30080AFF3008038
:1025F000F0B5134B134F9B6983B09E68FEF738FF0D
:10260000FFF71EFB0024013E25460F4B00954FF4BB
:10261000A47132460D4802F07BFD01F099FC3B7835
:102620000134002BF1D00A4801F0AAF9204601F04C
:10263000B7F9084803B0BDE8F04001F089B900BF20
:10264000E01100202409002011340008980900201E
:10265000D05E0008E05E0008AFF30080AFF30080BA
:1026600070B50546FEF704FFFFF7EAFA074E0024AF
:102670002846012102F0F4FD33780134002BF7D015
:102680002846002102F0ECFD204670BD2409002000
:1026900010B541F2E013C2F2000382B09B69002042
:1026A0009A68009041F2211340F698104FF4A471FB
:1026B000013AC0F60003C2F2000002F029FD41F227
:1026C0003033C2F200031860FFF7CAFF044601F07E
:1026D0005FFC45F6D060C0F6000001F051F92046DD
:1026E00001F05EF945F63870C0F6000001F048F9D7
:1026F000600001F055F945F6EC60C0F6000002B04C
:10270000BDE8104001F024B9AFF30080AFF30080C2
:1027100010B541F2E013C2F2000382B09B690020C1
:102720009A68009041F2211340F698104FF4A4717A
:102730000132C0F60003C2F2000002F0E9FC41F2EF
:102740003033C2F200031860FFF78AFF044601F03D
:102750001FFC45F6D060C0F6000001F011F92046DC
:1027600001F01EF945F63870C0F6000001F008F9D6
:10277000600001F015F945F6EC60C0F6000002B00B
:10278000BDE8104001F0E4B8AFF30080AFF3008083
:102790002DE9F04141F2E016C2F2000682B0B369C1
:1027A00040F698159A68C2F200054FF0000841F211
:1027B000211301324FF4A471C0F60003CDF800805C
:1027C000284602F0A5FCB36941F23034C2F200049D
:1027D0009A68206043F21147C0F600074FF4A471D5
:1027E000023A3B466818CDF8008002F091FCB369CC
:1027F00060609A68CDF80080033A3B464FF4A471BC
:1028000005F5247002F084FCB369A0609A68CDF8E5
:102810000080043A3B464FF4A47105F5767002F04F
:1028200077FCB369E0609A68CDF800804FF4A4713A
:10283000053A3B4605F5A46002F06AFC2061206879
:10284000FFF70EFF044601F0A3FB45F6D060C0F68B
:10285000000001F095F8204601F0A2F845F6387026
:10286000C0F6000001F08CF8600001F099F845F620
:10287000EC60C0F6000002B0BDE8F04101F068B8BD
:10288000426903468069824210B51CD098680130C5
:10289000986002F8011B19695A618A420CD21A68C1
:1028A00093420ED011680024196010464B601462E8
:1028B00002F0C6FC204610BDDA685A611A689342DD
:1028C000F0D1002010BD98680028DFD06FF0030021
:1028D00010BD00BFAFF30080AFF30080AFF3008006
:1028E000F8B5264A264B274F1B60002402F1100141
:1028F0005B609C60DA609A615A611961DC611C62FC
:10290000FEF7B6FDFFF79CF92026254686F31188D1
:1029100000211B48FFF7B4FF01211948FFF7B0FF62
:1029200002211748FFF7ACFF03211548FFF7A8FF66
:1029300085F311884FF0FF311148FFF711F84FF080
:10294000FF310F48FFF70CF84FF0FF310C48FFF74D
:1029500007F80B484FF0FF31FFF702F83B780134DE
:10296000002BD3D0084801F00BF8A00001F018F8B4
:102970000648BDE8F84000F0EBBF00BF8409002026
:102980003C09002024090020D05E0008445F0008B4
:1029900070B5554C2023A26983F31188536B3BB962
:1029A00083F311880121012000F05AFE80B170BD2F
:1029B0005942194023EA01035363002383F311882A
:1029C000C81A41424141012000F04AFE0028EED1E0
:1029D000A369202282F311885A6B62B3586380F393
:1029E00011880146022000F03BFE0028DFD1A369D8
:1029F000202282F311885A6B013267D080F311884C
:102A00000121032000F02CFE0028D0D1A66920234C
:102A100083F31188756B95B90A204FF0FF33336249
:102A20000146FEF7F5FC0028A8BF756B07DA85F3B1
:102A3000118801210EE082F311880121D2E7694259
:102A4000294025EA01057563002383F31188CA1A1A
:102A500051425141042000F003FE0028A7D1A5698E
:102A6000202383F311886E6B56B90A204FF0FF3391
:102A70002B620146FEF7CCFC0028A8BF6E6B2ADB58
:102A800000236B6383F31188F31A594259410520DF
:102A900000F0E6FD0546002889D1A469202383F3D0
:102AA0001188636B013308D04FF0FF330B200A21EC
:102AB0002362FEF7ADFC002811DB0021616381F386
:102AC00011880620BDE8704000F0CABD586380F34D
:102AD0001188014695E786F311880121D7E785F330
:102AE00011880121EDE700BFE0110020AFF3008065
:102AF000F0B587B003AD0024039504950594202616
:102B000086F311882846214602F042FD02F080FA41
:102B100084F3118886F3118805990120A142CCBF66
:102B20000021012100F09CFD074618B184F31188B3
:102B300007B0F0BD80F31188404A414B926941488B
:102B4000926800954FF4A471013A02F0E1FA3E4B0D
:102B50001860284602F054FB86F31188059902207C
:102B60000029CCBF0021012100F07AFD10B187F3CC
:102B70001188DDE780F3118886F31188059B002B0F
:102B800024DD02F045FA002484F31188202787F31E
:102B9000118805990320A142D4BF0021012100F032
:102BA0005FFD06460028C1D180F3118887F31188A4
:102BB00005990420B1F1010CDCF1000151EB0C018D
:102BC00000F04EFD30B186F31188B1E7284602F0DF
:102BD000CFFCD6E780F3118887F31188059B002B83
:102BE00024DD02F015FA002484F31188202686F3F0
:102BF000118805990320A142D4BF0021012100F0D2
:102C00002FFD0546002891D180F3118886F31188A5
:102C100005990520B1F1010EDEF1000151EB0E0125
:102C200000F01EFD30B185F3118881E7284602F0DF
:102C30009FFCD6E780F311887AE700BFE0110020FF
:102C4000314800089809002030130020AFF30080BD
:102C50002DE9F043202583B085F31188304F796A40
:102C60000120B1F1050EDEF1000151EB0E0100F083
:102C7000F7FC002840F0E78180F311884224A94640
:102C80003E46804689F311884FF0FF312548FEF714
:102C90008FFF0546244865B9B368726843F8044B52
:102CA0009342B36024BF3368B36002F061FC02F06A
:102CB000AFF988F311880220D5F1010138BF002156
:102CC000013400F0CDFC38BB462CDBD1202383F34C
:102CD0001188134C4FF0FF3104F11C00FEF768FF20
:102CE000054668B9E3682268043B9342E360C0F09C
:102CF000AE8141220C481A6002F03AFC02F088F9D9
:102D0000002383F311880320EA1A5142514100F055
:102D1000A7FC002800F0A48103B0BDE8F08300BF49
:102D200054080020700800206408002080F31188F7
:102D300085F311884120FEF763F9D0F1010138BF16
:102D40000021162000F08CFC0028E5D14220FEF77F
:102D500057F9D0F1010138BF0021172000F080FCA5
:102D60000028D9D14320FEF74BF9D0F1010138BF3B
:102D70000021182000F074FC0028CDD14420FEF77B
:102D80003FF9D0F1010138BF0021192000F068FCA3
:102D900006460028C0D14520FEF732F9014686F3E9
:102DA00011881A20D1F1010138BF002100F058FC30
:102DB0000028B1D1E168A3681B20CA1A51425141D1
:102DC00000F04EFC0028A7D10524A8460646202581
:102DD00088F3118801A8FEF753F9014686F311889C
:102DE0001C20D1F1010138BF002100F039FC00287E
:102DF00092D19DF8040000F033FD013CE7D11D2085
:102E0000954900F0FDFB002886D185F31188796A89
:102E1000924E1E204B1F5942594100F021FC84F371
:102E2000118800287FF478AF85F31188B1691F20DD
:102E3000D1F1010138BF002100F012FC84F31188A8
:102E400000287FF469AFF168B368B1EB030CDCF1E3
:102E5000000151EB0C01284600F002FC00287FF431
:102E60005BAF85F311884520FEF7EAF8D0F1010148
:102E700038BF0021212000F0F3FB00287FF44CAF85
:102E80004420FEF7DDF8D0F1010138BF00212220F7
:102E900000F0E6FB00287FF43FAF4320FEF7D0F8B8
:102EA000D0F1010138BF0021232000F0D9FB002818
:102EB0007FF432AF4220FEF7C3F8D0F1010138BFF2
:102EC0000021242000F0CCFB00287FF425AF412016
:102ED000FEF7B6F80023014683F311882520B1EBF5
:102EE000030EDEF1000151EB0E0100F0B9FB0028EA
:102EF0007FF412AFF968BB682620CA1A51425141CB
:102F000000F0AEFB00287FF407AF05244FF0200847
:102F10000546202688F3118801A8FEF7B1F801467E
:102F200085F311882720D1F1010138BF002100F07D
:102F300097FB00287FF4F0AE9DF8040000F090FCB1
:102F4000013CE6D12820444900F05AFB00287FF4D8
:102F5000E3AE86F31188796A404D29204B1F594210
:102F6000594100F07DFB84F3118800287FF4D4AE32
:102F700086F31188A9692A20D1F1010138BF002107
:102F800000F06EFB84F3118800287FF4C5AEE96879
:102F9000AB682B20B1EB030CDCF1000151EB0C0111
:102FA00000F05EFB00287FF4B7AE86F311882B6833
:102FB0006A68AB60D11A05F11C008910EB6002F061
:102FC000E7FA05F11000214602F0E2FA02F020F8DB
:102FD00084F3118886F31188696A2C20B1F1050EFB
:102FE000DEF1000151EB0E0100F03AFB84F3118891
:102FF00000287FF491AE86F31188A9692D20D1F1C4
:10300000010138BF002100F02BFB84F31188002858
:103010007FF482AE86F311882968AB682E20CA1A25
:103020005142514100F01CFB84F3118800287FF4C9
:1030300073AE86F311882968EB682F20CB1A5942AA
:10304000594100F00DFB002383F3118864E66368A7
:10305000043BE3604DE600BFF45D00085408002027
:103060000121582001F08CFEB0F1FF335942594143
:10307000042000F0F5FA044600287FF44DAE202528
:1030800085F311885820FDF7BBFF014684F31188B2
:103090000520B1F1FF3CDCF1000151EB0C0100F027
:1030A000DFFA00287FF438AE85F311888E4C0121B9
:1030B00004F11C00FEF77CFD054678B9E368226840
:1030C000043B9342E36002D26368043BE36058220E
:1030D00086481A6002F04CFA01F09AFF002383F34D
:1030E00011880620B5F1FF3EDEF1000151EB0E0123
:1030F00000F0B6FA044600287FF40EAE202585F3D2
:1031000011885820FDF79CFF014684F311880720A1
:10311000B1F1FF346142614100F0A2FA0446002897
:103120007FF4FAAD85F31188796A6F4E0820D1F1EA
:10313000010138BF002100F093FA804610B184F3FA
:103140001188E9E580F3118885F31188B1690920B8
:103150004A1F5142514100F083FA044610B188F3EE
:103160001188D9E580F3118885F31188F168B36877
:103170000A20CB1A5942594100F072FA0028DED1D8
:1031800080F31188052405E09DF8040000F068FB39
:10319000013C0ED04FF0FF3101A8FEF729FDD0F120
:1031A000010138BF00210B2000F05AFA0028EBD0B3
:1031B000B2E50C204E4900F023FA00287FF4ACADB4
:1031C0004FF0FF31472001F0DBFDD0F1010138BFA6
:1031D00000210D2000F044FA00287FF49DAD4FF04F
:1031E000FF3101A8FEF704FDD0F1010138BF002135
:1031F0000E2000F035FA00287FF48EAD3968BB68E8
:10320000394D0F20B1EB030CDCF1000151EB0C0147
:1032100000F026FA00287FF47FAD2968EB681020C3
:10322000B1EB030EDEF1000151EB0E0100F018FAD4
:1032300000287FF471AD012101A8FEF7D9FCB0F19F
:10324000FF3041424141112000F00AFA00287FF48A
:1032500063AD202686F3118801A8FDF711FF014612
:1032600084F311881220B1F1FF325142514100F034
:10327000F7F900287FF450AD86F31188696A1320AE
:103280004B1F5942594100F0EBF900287FF4DBAEA7
:103290004FF0000888F31188202585F31188B9695B
:1032A000114C1420B1EB080CDCF1000151EB0C01C6
:1032B00000F0D6F9064600287FF451AF80F311885C
:1032C00085F31188E168A3681520B1EB030EDEF1E8
:1032D000000151EB0E0100F0C3F900283FF426ADC8
:1032E00086F3118818E500BF540800206408002008
:1032F000F45D0008AFF30080AFF30080AFF300800F
:103300004FF48053C4F2020319461A6842F00102D6
:103310001A600A684FF480539207C4F20203F8D58A
:103320005A6822F003025A605A6819465A604B687C
:103330004FF4805213F00C03C4F20202F7D111686B
:1033400001F0F90111605360536A43F001035362C5
:10335000516A4FF480538807C4F20203F8D54FF442
:103360001052C0F228025A604FF40452DA6230223E
:103370001A631A6842F080721A6019684FF480521A
:103380008901C4F20202F8D54FF40053C4F20203DB
:1033900011211960536843F002035360516801F032
:1033A0000C014FF480530829C4F20203F6D11A6BC2
:1033B0001A637047AFF30080AFF30080AFF3008073
:1033C00038B52022034682F311880E4A9469606A58
:1033D000236204F12405A84206D00368636201F069
:1033E0002FFF606AA842F8D1637F990704D163690F
:1033F00022691A61226953610F20BDE8384001F04B
:10340000C7BE00BFE0110020AFF30080AFF3008023
:10341000FFF7D6BFAFF30080AFF30080AFF30080BB
:1034200001F0D6BDAFF30080AFF30080AFF30080B2
:10343000F0B4134E002506F17007A6F110011AC969
:10344000A3420DD204391A4651F8040F42F8040B76
:10345000A242F9D3DA43141924F0030404341B19EB
:1034600056F8042C934203D243F8045B9342FBD3F7
:10347000BE4206F1100301D21E46DEE7F0BC7047E3
:10348000605F0008AFF30080AFF30080AFF300800F
:10349000FEE700BFAFF30080AFF30080AFF3008022
:1034A000704700BFAFF30080AFF30080AFF3008040
:1034B000704700BFAFF30080AFF30080AFF3008030
:1034C000202383F3118862B672B683F3118862B643
:1034D000002383F3118862B6704700BFAFF300800A
:1034E000704700BFAFF30080AFF30080AFF3008000
:1034F00000207047AFF30080AFF30080AFF300808F
:1035000040F62413C2F2000301221A70704700BF74
:103510004FF48843C4F200031A6842F080021A6034
:10352000704700BFAFF30080AFF30080AFF30080BF
:10353000EFF30983203383F30988002383F3118891
:10354000704700BFAFF30080AFF30080AFF300809F
:1035500010B54121044601F083FE4221204601F0CE
:103560007FFE20464321BDE8104001F079BE00BF38
:1035700010B540F62404C2F20004204601F040FEDB
:103580002046BDE8104001F0ABBD00BFAFF30080A6
:103590000A4B30B403F114002025002453F8042F03
:1035A0003AB185F31188517F41F00401517784F3DA
:1035B00011888342F2D130BC704700BF2C13002029
:1035C00010B4202383F311884FF080440023646AF1
:1035D00083F31188641A511A8C4238BF184607D3F6
:1035E000044A01231370044A1370044A10601846F9
:1035F00010BC70475C1100204413002058110020BB
:10360000F0B40F4E0F4F35683B4604E011F8014B04
:103610001278A24209D19D421A4603F10103F5D85E
:103620000B7813B93760184607E0074A0123137077
:10363000064A1370064A10601846F0BC704700BF77
:103640006C130020001000205C11002044130020A7
:1036500058110020AFF30080AFF30080AFF300807B
:1036600041B9054A01231370044A1370044A1060DB
:1036700018467047002070475C110020441300205A
:1036800058110020AFF30080AFF30080AFF300804B
:1036900038B5202484F31188012001F091FF002324
:1036A00083F3118880F00101C9B20120FFF7D8FF30
:1036B000054600B138BD84F31188022001F080FF77
:1036C00085F3118880F00101C9B20220FFF7C8FF1D
:1036D00005460028EED184F31188042001F070FF24
:1036E00085F3118880F00101C9B20320FFF7B8FF0C
:1036F00005460028DED184F31188082001F060FF20
:1037000085F3118880F00101C9B20420BDE838407A
:10371000FFF7A6BFAFF30080AFF30080AFF30080E8
:10372000F8B54B4EB3699C68651C284601F080FCD7
:10373000021B5142514107460120FFF791FF00B1A2
:10374000F8BDB369996802206B1A59425941FFF7D5
:1037500087FF0028F4D1384601F06AFCB5EB000C75
:10376000DCF1000151EB0C010320FFF779FF002889
:10377000E6D1B36999680420B4EB010EDEF10001D3
:1037800051EB0E01FFF76CFF0028D9D1202383F302
:103790001188B3699A6802329A6080F31188B3691C
:1037A0009968A71C05207A1A51425141FFF758FF2A
:1037B0000028C5D1284601F03BFC031B5942594162
:1037C0000620FFF74DFF0028BAD1B369996807209A
:1037D000B7EB010CDCF1000151EB0C01FFF740FFEE
:1037E0000028ADD1B369D96B0820B5EB010EDEF12D
:1037F000000151EB0E01FFF733FF0028A0D1E71CB9
:10380000384601F015FC281A414241410920FFF7D2
:1038100027FF002894D1B36999680A207A1A514287
:103820005141FFF71DFF00288AD1B369D96B0B20E6
:103830007B1A59425941FFF713FF002880D12023FA
:1038400083F31188B3699C60DC6380F3118877E7A8
:10385000E0110020AFF30080AFF30080AFF30080F1
:10386000202383F3118841F26C33C2F200031A68FB
:1038700002F8010B1A60002383F31188704700BF20
:103880000078FFF7EDBF00BFAFF30080AFF300801B
:103890004120FFF7E5BF00BFAFF30080AFF300802A
:1038A0004220FFF7DDBF00BFAFF30080AFF3008021
:1038B0004320FFF7D5BF00BFAFF30080AFF3008018
:1038C00038B540F6A4040546C2F20004204601F0D3
:1038D000F7FD2878FFF7C4FF2046BDE8384001F027
:1038E0005FBD00BFAFF30080AFF30080AFF3008097
:1038F00038B540F600040546C2F20004204601F047
:10390000DFFD2878FFF7ACFF2046BDE8384001F026
:1039100047BD00BFAFF30080AFF30080AFF300807E
:1039200010B5044640F62400C2F2000001F068FC25
:103930002078BDE81040FFF793BF00BFAFF30080D1
:103940000078FFF78DBF00BFAFF30080AFF30080BA
:1039500038B50178084D41B10446286803689B6872
:10396000984714F8011F0029F7D128680349036814
:1039700002221B68984738BD70130020F05F0008D2
:1039800038B5017849B1054D0446286803689B683D
:10399000984714F8011F0029F7D138BD7013002093
:1039A00070B584B0002826D00DF101054CF6CD4647
:1039B0002B46CCF6CC46A6FB0012D20802EB8201C5
:1039C000A0EB41013031C9B21C4603F8011C10467E
:1039D0000133002AEFD16B469C420AD9094E02E01E
:1039E00014F8021C013C306803689B689847AC429D
:1039F000F6D104B070BD034B1868036830219B6892
:103A00009847F6E770130020AFF30080AFF3008013
:103A100038B5084D4C24286803682D219B689847C9
:103A2000013CF8D1034B04491868036802221B6863
:103A3000984738BD70130020F05F0008AFF3008096
:103A4000202383F311884FF46D43CEF200035B68AB
:103A500013F4006302D183F311887047EFF30983F5
:103A60004FF0807243F8042CA3F1200282F30988FE
:103A7000054A116892698968926891428CBF034A2D
:103A8000034A43F8082C7047E011002001030008A6
:103A900004030008AFF30080AFF30080AFF30080B1
:103AA0002DE9F0414FF080452B69990703D4BDE81B
:103AB000F041FFF7C5BF4FF00008C5F81080202681
:103AC00086F31188194C6A6AE369A06A9968171A23
:103AD0008F4204F11C071AD31A68D3F80CC041189E
:103AE000BA42A1625760E261C3F80C8008BFC5F812
:103AF0000C8088F311881869E04786F31188E36920
:103B00006A6AA06A9968C0EB020C6145E4D9BB42BD
:103B100008D04118891A012998BF02214FF080432B
:103B20008A185A63002383F31188C0E7E01100204C
:103B300008B52022034682F31188006828B1026884
:103B40001A60002383F3118808BD9A68002AF8D010
:103B500058689047F5E700BFAFF30080AFF30080EF
:103B6000F8B50E4C002818BF044604F11006304684
:103B70000F4601F0A5FCA3686BB10022144628CBC8
:103B800001345219002BFAD107B13A60304601F0E6
:103B900007FC2046F8BD1A461C46F5E748130020EE
:103BA000F8B550F8085C05F110070646A0F10804C6
:103BB0000835384601F084FC2B46AB421A6801D028
:103BC000A34202D21AB1944201D31346F5E756F844
:103BD000041C46F8082C1C6001F1080256F8085C29
:103BE000A018A8420AD05A6802F1080159188C425C
:103BF00012D03846BDE8F84001F0D2BB4068A25868
:103C00000918083146F8041C46F8082C5A6802F1D5
:103C1000080159188C42ECD156F8040C56F8081CCF
:103C20001218083283E80600E3E700BFAFF3008014
:103C300070B582B001A90020FFF792FF102100208B
:103C400001F04EFC011C18BF012104460120FFF7C2
:103C500007FD054608B102B070BD2046FFF7A0FF82
:103C60006FF0FF01284601F03BFCD0F1010138BFA5
:103C700000210220FFF7F4FC0028ECD101A97D48C7
:103C8000FFF76EFF10217B4801F02AFC102105464A
:103C9000784801F025FC10210446764801F020FC0C
:103CA00006462846FFF77CFF2046FFF779FF30469F
:103CB000FFF776FF69466F48FFF752FF421E5142F9
:103CC00051410320FFF7CCFC0028C4D110216948E2
:103CD00001F006FC10210446664801F001FC1021A9
:103CE0000546644801F0FCFBFFF75AFF2846FFF742
:103CF00057FF2046FFF754FF69465E48FFF730FF45
:103D0000431E594259410420FFF7AAFC0028A2D1C2
:103D10001121584801F0E4FB10210446554801F0F8
:103D2000DFFB05462046FFF73BFF69465148FFF79A
:103D300017FFB0F1020CDCF1000151EB0C01052082
:103D4000FFF78EFC002886D110214A4801F0C8FBFD
:103D5000694604464748FFF703FF012808BF0146AC
:103D600009D069464348FFF7FBFEB0F1020EDEF1D1
:103D7000000151EB0E010620FFF772FC00287FF4D2
:103D80006AAF2846FFF70CFF2046FFF709FF694698
:103D90003848FFF7E5FE0138414241410720FFF76F
:103DA0005FFC00287FF457AF1021324801F098FBE8
:103DB000102105462F4801F093FB04462846FFF7E3
:103DC000EFFE69462B48FFF7CBFE821E5142514160
:103DD0000820FFF745FC00287FF43DAF202125484F
:103DE00001F07EFBFFF7DCFE2046FFF7D9FE6946B7
:103DF0002048FFF7B5FE431E594259410920FFF7FD
:103E00002FFC00287FF427AF69461A48FFF7A8FE69
:103E10000099184801F064FB694604461548FFF70D
:103E20009FFED0F1010138BF00210A20FFF718FCE6
:103E300000287FF410AF2046FFF7B2FE69460D4818
:103E4000FFF78EFEB0F1010CDCF1000151EB0C012B
:103E50000B20FFF705FC00287FF4FDAE9DE80A006B
:103E60000C20B1EB030EDEF1000151EB0E01FFF768
:103E7000F7FBF0E6B8080020AFF30080AFF3008056
:103E800010B40346202181F31188827F013AD2B217
:103E9000827712B9047F0F2C04D0002383F311889A
:103EA00010BC7047447F04F00304012C11D0022C95
:103EB000F3D140691C6904611C69606182F3118857
:103EC000186C81F3118801681960036082F311880E
:103ED000E6E7416904690C610369596182F311885D
:103EE00010BCFFF75DBE00BFAFF30080AFF30080F2
:103EF0002DE9F84381464FF0200888F31188114ED0
:103F00003069837F01338377002585F311882F463D
:103F100000E02046484508BF45F0010588F31188B8
:103F20000469B4420BD0A37F0133A37787F31188D0
:103F3000FFF7A6FF002CECD12846BDE8F88300244B
:103F4000F4E700BFE0110020AFF30080AFF3008082
:103F500038B50446202383F31188037F0F2B07D045
:103F6000084B426A9B6909201A60636201F010F9EC
:103F7000256A002383F311882046FFF781FF284636
:103F800038BD00BFE0110020AFF30080AFF3008028
:103F900070B5074C002604F1140554F8043B18468C
:103FA0001BB1FFF7D5FF44F8046CAC42F5D170BDEE
:103FB00030130020AFF30080AFF30080AFF3008038
:103FC00070B52A4E2A48B3692A4D9C6882B001F028
:103FD00077FA294A294B00924FF4A471621C2848B1
:103FE00001F096F828602748244B0090A21C4FF45B
:103FF000A471254801F08CF8686024481F4B00909C
:10400000E21C4FF4A471224801F082F8A860214814
:104010001A4B0090221D4FF4A4711F4801F078F84C
:10402000E8601E48154B00904FF4A471621D1C48B7
:1040300001F06EF828610E4801F0B2F9FFF7A8FF11
:10404000B36999680120B4EB010EDEF1000151EB78
:104050000E01FFF705FB08B102B070BD1149022047
:1040600002B0BDE87040FFF7CBBA00BFE0110020FE
:10407000A408002030130020F85D0008C1380008B3
:1040800098090020F05D0008E00A0020E45D0008C7
:10409000280C0020E85D0008700D0020E05D00089D
:1040A000B80E0020F45D0008AFF30080AFF300808D
:1040B000F0B541F2E017C2F2000783B0BB6940F6E9
:1040C00098159A6843F6411645F6F850C2F2000575
:1040D000C0F60006C0F60000053A334600904FF4E3
:1040E000A471284601F014F841F23034C2F2000401
:1040F000BB699A68206045F6F0504FF4A471C0F691
:104100000000043A33460090681801F001F8BB69DA
:1041100060609A6845F6E450C0F60000033A334602
:1041200000904FF4A47105F5247000F0F1FFBB6915
:10413000A0609A6845F6E850C0F60000023A33469F
:1041400000904FF4A47105F5767000F0E1FFBB69B3
:10415000E0609A6845F6E050C0F600004FF4A471A4
:10416000013A3346009005F5A46000F0D1FF2061CC
:10417000FFF70EFF45F6F4510120C0F6000103B031
:10418000BDE8F040FFF73CBAAFF30080AFF300802A
:104190002DE9F04141F2E016C2F2000682B0B369A7
:1041A00039489A6843F6411545F6F051C0F60005C6
:1041B000C0F60001043A2B4600914FF4A47100F0C0
:1041C000A7FFB36941F23034C2F200049A6860601C
:1041D00040F6981745F6F851C2F20007C0F6000104
:1041E000053A2B46009138464FF4A47100F090FF39
:1041F000B36920609A6845F6E051C0F60001013AC3
:104200002B46009107F5A4604FF4A47100F080FFE5
:10421000B36920619A6845F6E853C0F6000300933D
:1042200007F576704FF4A471023A2B4600F070FF48
:104230004FF02008E06088F31188B3699A6845F66A
:10424000E453C0F60003009307F524702B464FF4A7
:10425000A471033A00F084FEA060002585F3118864
:10426000A06888F3118800F0EBFF85F31188FFF751
:104270008FFE45F6F4510120C0F6000102B0BDE802
:10428000F041FFF7BDB900BFE00A0020AFF30080A6
:1042900082694169914210B5034618D0986819693E
:1042A0000130986012F8014B8A429A610CD21A6868
:1042B000934207D0116819604B60002310461362C7
:1042C00000F0BEFF204610BDDA689A61EFE7816812
:1042D0000029E3D06FF0020010BD00BFAFF30080F3
:1042E0002DE9F041202382B083F31188914E726949
:1042F000B36900219A425ED00120FFF7B1F900288E
:1043000038D180F3118841248A4D21460134284652
:104310004FF0FF32E4B2FDF7B3FB452CF4D14FF080
:10432000200888F31188A9680220D1F1010138BF63
:104330000021FFF795F9E8B980F3118804240746B6
:1043400088F311887B4D2846FFF7A2FF87F3118879
:10435000C0B2FFF785FA013CF2D1202383F3118824
:104360006A69AB699A4218BF214629D00320FFF73A
:1043700077F928B1002383F3118802B0BDE8F081FA
:1043800080F3118804206C49FFF73AF904460028AD
:10439000F3D1202787F31188664D2846FFF778FF71
:1043A000033014BF002101210520FFF759F960B146
:1043B00084F31188E1E7B168003118BF01219BE760
:1043C000A968003118BF0121D0E780F311880822C5
:1043D00003465A492846FDF79BFB031F59425941A2
:1043E0000620FFF73DF904460028C6D187F311885F
:1043F000A9680720D1F1010138BF0021FFF730F98A
:1044000080460028D4D180F311884D4A4D4B9269E3
:104410004D489268CDF800804FF4A471013200F04D
:1044200077FE4A4B186087F311882A69EB68A96800
:10443000D31A591A0820B1F1040CDCF1000151EB38
:104440000C01FFF70DF910B188F3118895E780F39F
:104450001188FFF79DFD87F31188EB682A692868AA
:10446000AB61D21AA8426B61AA6018BF6FF0010459
:1044700008D0036804625E60336000F0E1FE3068DB
:10448000B042F6D1002787F31188202585F31188E3
:104490003169F268B368274C891A0920B1EB030E21
:1044A000DEF1000151EB0E01FFF7DAF8034610B11F
:1044B00087F3118861E780F3118802221F492046A3
:1044C000FDF726FB0238414241410A20FFF7C8F8B8
:1044D000034600287FF451AF184902222046FDF719
:1044E00017FB821E514251410B20FFF7B9F80646D7
:1044F00000287FF442AF85F31188A1680C20D1F128
:10450000010138BF0021FFF7ABF8014610B186F377
:10451000118832E780F311880A222046FDF7B0FAAD
:10452000B0F1FF33594259410D2002B0BDE8F041CE
:10453000FFF796B830080020B05E0008E00A0020BF
:10454000E0110020F11A0008980900203013002023
:104550002DE9F04F20258DB085F31188AC4CA3696F
:104560005A6B42F007025A63002383F31188FCF769
:1045700007FDB0F1010CDCF1000151EB0C01012051
:10458000FFF76EF810B10DB0BDE8F08FFCF7F8FC46
:10459000B0F1020EDEF1000151EB0E010220FFF737
:1045A0005FF80028EFD1FCF7EBFC043841424141B1
:1045B0000320FFF755F80028E5D1FCF7B9FCD0F14E
:1045C000010138BF00210420FFF74AF80646002801
:1045D000D9D1FCF74DFF85F311884FF08048D8F80A
:1045E000247086F31188A1698A4B8A688A480091F1
:1045F000013A4FF4A47100F08BFD884E3060FCF757
:10460000BFFC07F5FA71814607F226220520FEF766
:10461000D7FF0028B7D10620B9F10102514251411C
:10462000FFF71EF80028AED1FCF782FCD0F10101A3
:1046300038BF00210720FFF713F807460028A2D152
:10464000FFF7A6FC85F31188A3695A6B42F00502B7
:104650005A6387F31188FCF7B3FC431F5942594151
:104660000820FEF7FDFF00288DD1FCF761FCD0F19A
:10467000010138BF00210920FEF7F2FF074600289C
:1046800081D1FCF7F5FE85F31188D8F8245087F323
:104690001188A1695F4B8A685F480091013A4FF425
:1046A000A47100F035FD3060FCF78AFC05F5FA7165
:1046B000074605F226220A20FEF782FF00287FF433
:1046C00062AF0B20B7F1010CDCF1000151EB0C01E2
:1046D000FEF7C6FF00287FF456AFFCF729FCD0F1A7
:1046E000010138BF00210C20FEF7BAFF0746002861
:1046F0007FF449AF4A4DFFF74BFC4A4B2D601B60DE
:104700004FF0200A8AF311882968A26905970DF1F4
:104710003009039249F8281D4FF0FF300122C5F8F7
:1047200000900492069087F311888AF31188196823
:10473000A2690A970DF13008089248F8141DC3F8D1
:104740000080042309930B9087F31188FCF790FEF7
:104750008AF311884FF08043D3F824B087F311888F
:10476000A36931499A682C480091304B4FF4A471E9
:10477000013A00F0CDFC0BF5FA773060A4698AF3BA
:104780001188636B03F00502052A05D00523236217
:104790000B2000F0FDFC636B23F005036363002333
:1047A00083F311880D2039460BF22622FEF708FF0D
:1047B00000287FF4E8AEFCF7BBFBD0F1010138BF65
:1047C00000210E20FEF74CFF00287FF4DCAE154CD4
:1047D000FFF7DEFB1248494600F052FB20464146F7
:1047E00000F04EFB29680F20B1EB050EDEF1000151
:1047F00051EB0E01FEF734FF00287FF4C4AE2168B0
:1048000010200A1B51425141FEF72AFFBBE600BFB0
:10481000E0110020911700089809002030130020B3
:10482000B4080020A0080020E05D000881490008CD
:1048300008B5202282F311888368002B05DD00F083
:10484000E7FB002383F3118808BD00F091FEF6E733
:104850002DE9F041444E756F2F68EC6922072C62F8
:104860003BD1E3052DD4A00617D4390601D5220685
:104870004ED463060DD5202383F31188726CB36C7C
:1048800039489A4253D027F040072F60002383F322
:104890001188BDE8F041FFF7D3B8202383F31188D6
:1048A000B5F8248073695FFA88F8002B47D02F4849
:1048B0004146FDF7E5FF002846DB002383F311881E
:1048C000D3E7202383F3118829484FF4007100F0C7
:1048D000FFFC002383F31188C5E714F0080F0CBF19
:1048E00000218021E30748BF41F02001A00748BF15
:1048F00041F04001620748BF41F48071202383F3F7
:1049000011881B4800F0E4FC002383F31188A8E71A
:10491000202383F311881748FFF7BAFC0028A4BFAF
:1049200080B2288515DB002383F31188A1E7836B10
:10493000002BA8D00430102100F0CAFCA3E70C48DB
:10494000042100F0C5FCB2E70948802100F0C0FC5A
:10495000B3E70748082100F0BBFC27F0C00343F091
:1049600040032B60DFE700BF601100206C110020C6
:104970006411002090110020AFF30080AFF300809D
:1049800038B5202585F3118840F6B400C2F2000046
:10499000002100F09DFC002400F03AFB84F3118814
:1049A0004FF4FA70FCF754FD85F3118840F6A0002F
:1049B000C2F20000214600F08BFC00F029FB84F3DA
:1049C000118838BDAFF30080AFF30080AFF30080F3
:1049D0002DE9F0413C4DAB699E68202383F311889B
:1049E0003A4CA3680021002B61D0002383F3118887
:1049F0000120FEF735FE08B1BDE8F081202383F3E6
:104A00001188A168314B002958D00121002383F37C
:104A100011880220FEF724FE07460028ECD120234F
:104A200083F31188DFF8A480404600F091FC87F3FF
:104A30001188216803200B1B59425941FEF710FED3
:104A40000028D9D1D8F808100420D1F1010138BFCD
:104A50000021FEF705FE0028CED1AB69996805203C
:104A6000B6EB010CDCF1000151EB0C01FEF7F8FD97
:104A70000028C1D1404600F023FD00F041FCD8F8E9
:104A800000100620B1EB080EDEF1000151EB0E0123
:104A9000FEF7E6FD0028AFD1D8F808100720D1F1C5
:104AA000010138BF0021BDE8F041FEF7D9BDAB6977
:104AB0009A6BA360E2609C63012196E7AA69906B00
:104AC0009A60D8609363A1E7E0110020A408002059
:104AD000F0B5202683B086F31188A24CA16801208E
:104AE000D1F1010138BF0021FEF7BAFD054618BB20
:104AF00080F3118886F3118841212046FDF7C0FE1E
:104B000042212046FDF7BCFE43212046FDF7B8FEBA
:104B100020464421FDF7B4FE85F3118886F3118801
:104B20006269A3699A4218BF294600F0E680022014
:104B3000FEF796FD054620B1002383F3118803B0EC
:104B4000F0BD80F31188202383F31188854829461E
:104B5000FDF796FE043014BF002101210320FEF76B
:104B60007FFD002840F0C68080F3118804257D4E2B
:104B70004FF0FF313046FCF7F3FEC0B2FEF770FE97
:104B8000013DF4D1202787F31188B1680420D1F1C9
:104B9000010138BF0021FEF763FD85F3118800286D
:104BA000CDD105207049FEF72BFD0028C7D187F332
:104BB000118841213046FDF763FE42213046FDF762
:104BC0005FFE43213046FDF75BFE30464421FDF792
:104BD00057FE85F31188654908222B463046FCF7BD
:104BE000FFFE031F594259410620FEF739FD0028F8
:104BF000A5D187F31188B1680720D1F1010138BF31
:104C00000021FEF72DFD85F31188002897D187F349
:104C1000118841213046FDF733FE42213046FDF731
:104C20002FFE43213046FDF72BFE30464421FDF791
:104C300027FE85F311884D49022230462B46FCF7AA
:104C4000CFFEB0F1020CDCF1000151EB0C010820A9
:104C5000FEF706FD00287FF472AF44490222304679
:104C60002B46FCF7BDFEB0F1020EDEF1000151EB68
:104C70000E010920FEF7F4FC00287FF460AF87F3F3
:104C80001188B1680A20D1F1010138BF0021FEF777
:104C9000E7FC85F3118800287FF451AF87F3118872
:104CA00029463046FDF7ECFD3068F368B560B04248
:104CB000B361736118BF6FF0010508D00368056226
:104CC0005C60236000F0BCFA2068A042F6D10027A7
:104CD00087F31188202686F31188A168214D0B20C7
:104CE000CC1B61426141FEF7BBFC044650B187F327
:104CF000118824E785F3118821E7A168003118BFE6
:104D0000012114E780F31188194A1A4B92691A4855
:104D1000926800944FF4A471013200F0F9F9174B36
:104D2000186086F31188A9680C20D1F1010138BF01
:104D30000021FEF795FC10B184F31188FFE680F3A3
:104D40001188FFF725F90A212846FCF709FEB0F182
:104D5000FF32514251410D2003B0BDE8F040FEF753
:104D60007FBC00BF7C080020B05E0008E00A002085
:104D7000E0110020D119000898090020301300200C
:104D800038B50546202383F311880C48FCF710FF43
:104D9000044670B90A4B0B489A68596842F8045B9C
:104DA0008A429A6024BF1A689A6000F0E1FB00F022
:104DB0002FF9002383F31188204638BD70080020A6
:104DC0005408002064080020AFF30080AFF3008097
:104DD000202383F31188094A0949136809680730B9
:104DE00020F00700C91A88429ABF181810600023E3
:104DF000002282F311881846704700BF7413002008
:104E000068130020AFF30080AFF30080AFF30080A1
:104E1000202383F31188037F072B0ED8DFE803F0EC
:104E20001D0D0D2108040D08036A9A6801329A606D
:104E300090E80C001A60026853604FF0FF32026283
:104E400081680A4B002202771B689A688A42FBD26B
:104E50005A680360426010605860002383F3118831
:104E60007047036A00221A60E7E700BFE0110020E4
:104E7000FEE700BFAFF30080AFF30080AFF3008028
:104E8000202383F31188024600E01A461368834208
:104E900003D08B42F9D10B681360002383F3118890
:104EA000704700BFAFF30080AFF30080AFF3008026
:104EB0004FF48053CEF20003F0B459680C4B86686F
:104EC0005F6FC5684468D0E90423891BC91B01359D
:104ED000521843F10003C0E904230368C560A142EE
:104EE00088BF41609942816038BF0160F0BC704763
:104EF000E0110020AFF30080AFF30080AFF300803B
:104F00004FF48053CEF200035B688360704700BFAC
:104F100038B5202383F311880F4A1068916983689C
:104F20008C68A34203D2002383F3118838BD036841
:104F300001255A6013609061002205770A7700E02E
:104F40001B689A689442FBD95A680B604A601160EA
:104F50005960FBF7C5F9E6E7E0110020AFF30080E8
:104F60002DE9F00341F2E015C2F20005A1F1240C95
:104F700000EB0C076969C76040F80C30069B7B604A
:104F800040F2F123C0F600033B6202230026904664
:104F900000F1240900F12802037701230561C0F81C
:104FA00008800861416104464677C0F83C8086630A
:104FB0004663837786616861C0F824908262C2622A
:104FC000BDE8F003704700BFAFF30080AFF300808F
:104FD0000C4A10689169036830B45A608C68136099
:104FE00001259061002205770A7700E01B689A6826
:104FF000A242FBD85A680B604A601160596030BC0D
:10500000FBF76EB9E0110020AFF30080AFF3008032
:10501000044B1A689B6992689B689A4200D8704753
:10502000FFF7D6BFE0110020AFF30080AFF30080A0
:1050300010B5202383F31188084B9B69DC6B9968BA
:105040008C4201D0814200D29860D863FFF7E0FF24
:10505000002383F31188204610BD00BFE01100201B
:1050600010B5EFF30584E405E40D1CB1002383F3D0
:10507000118810BDFFF7CCFF84F3118810BD00BF6D
:10508000F0B4144F8568BE690446B06821620023FD
:1050900085420CD823773B461B689A689542FBD91A
:1050A0005A682360626014605C60F0BC70473377BC
:1050B0003B461B689A689042FBD95A68336072601D
:1050C00020465E603146012316602377BC61F0BC48
:1050D000FBF706B9E0110020AFF30080AFF30080CA
:1050E00008B52022034682F3118882680132002A23
:1050F000826003DD002383F3118808BD0068026825
:1051000000211A605360FFF7BBFFF3E7AFF30080A5
:105110002DE9F04198460446202383F3118841F29B
:10512000E016C2F2000624394718D6F814E0C7602A
:1051300040F801800699796040F2F121C0F6000143
:105140003962002500F12803826000F1240CC2635B
:10515000022701220661C0F814E0CEF810002946AB
:10516000077745778563456382778561C0F824C0FA
:105170008362C3627061FFF783FF85F31188204665
:10518000BDE8F081AFF30080AFF30080AFF30080A3
:1051900041F2E013C2F2000310B41A68996914686E
:1051A000087701201077104663601C609A6110BC7C
:1051B000FBF796B8AFF30080AFF30080AFF3008049
:1051C00010B5202383F311880B4CA269134653F8C2
:1051D000280F984208D0016891624B600D23037735
:1051E000002383F3118810BD0E20FFF7D1FFA269C1
:1051F000134653F8280FEEE7E0110020AFF30080CC
:1052000010B50346202282F311888268013A826039
:105210000020002A03DB002383F3118810BD074C14
:10522000A26913625968136051600A6005205A60D0
:10523000FFF7AEFFA369186AEDE700BFE011002099
:1052400000228168054B02771B689A688A42FBD26C
:105250005A6803604260106058607047E011002097
:1052600070B50E4A9469202282F3118800F1280556
:105270002562067FC26A25600E2E2163626014607B
:10528000C46207D00C20FFF783FF206A002383F35A
:10529000118870BDFFF7D4FFF4E700BFE0110020D4
:1052A000426B037F11430A2B41630AD00B2B00D0C2
:1052B0007047036A19408B42FAD100230362FFF75B
:1052C000BFBF036A1942F8D1704700BFAFF3008037
:1052D00070B50468A04206460D460DD0E3682B4326
:1052E000E36015B12269134203D06068A168FFF73B
:1052F000D7FF2468A642F1D170BD00BFAFF3008094
:10530000124B70B59C69202383F31188A36BC3B142
:1053100000261A68D9689342A16308BF9E6009D02D
:105320001168956B196010464B609A60DD6093635D
:10533000FFF786FFA36B002BEBD1E36BA360FFF7B6
:1053400067FE002383F3118870BD00BFE0110020C9
:1053500030B40446114A2568C3689069AC4283633F
:1053600017D0C16B4BB11A68934203D09268914237
:1053700038BF1146DB68002BF5D12B68AA6B816022
:10538000284623605C60A560E260AC6330BCFFF738
:1053900057BF0023A36030BC704700BFE01100205E
:1053A00038B5154B04469869202383F31188256886
:1053B000E368AC4283631CD0C16B4BB11A68934263
:1053C00003D09268914238BF1146DB68002BF5D1BB
:1053D0002B68AA6B8160236028465C60E260A56050
:1053E000AC63FFF72DFFFFF713FE002383F3118853
:1053F00038BD0023A360F8E7E0110020AFF3008080
:10540000F8B52E4A836894690546002B51D0A168EF
:105410009A68914206D91A7F9960062A31D0072AE4
:105420001CD092B12B461B689D4203D09968A2689C
:105430009142F8D25A6823600620626014605C6072
:105440002562BDE8F840FFF7A3BE93E806001160AF
:10545000196818464A60FFF7F3FEE3E758681A68D0
:105460001E6A02601F68324678601268964202D057
:1054700090688842F9D251681A6059600B60536095
:10548000D0E758681A681E6A02601F683246786062
:105490001268964202D090688842F9D251681A6028
:1054A00059600B605360B368A1689A688A42B2D3AE
:1054B000B8E7A36B8460C360A063F8BDE01100206F
:1054C00008B5202383F31188FFF79AFF002383F3A5
:1054D000118808BDAFF30080AFF30080AFF3008008
:1054E000F8B5224E002818BF064606F1100707310E
:1054F000384621F0070506F10804FFF7E1FF00E058
:105500001C4623680BB35A689542F9D805F1080187
:10551000914217D84FF6F87ECFF6FF7E03EB010CD1
:105520001868C5EB0E0E72445850CCF80420C4F82D
:1055300000C05D601C46384644F8086BFFF730FF3A
:105540002046F8BD1A682260F4E73846FFF728FFC6
:1055500033684BB105F10800984728B100F1080401
:10556000066045602046F8BD0024E9E748130020A6
:1055700082680132002A0346826000DD70470268BB
:10558000116801604B60104600231362FFF758BE9C
:1055900070B5856881600135002D04460BDC6FF025
:1055A00001066068436863601C60FFF749FE0135CF
:1055B000012D0662F5D170BDAFF30080AFF300801E
:1055C000C20710B411D5204B19680022994203D0AC
:1055D000096801329942FBD15968994203D0496860
:1055E000013A9942FBD1002A2CD1830712D5164BE0
:1055F0001C46002254F81C1FA14203D00968013246
:10560000A142FBD11B6AA34203D05B68013AA342CB
:10561000FBD1BAB910F0040012D00B4B1A6900206C
:105620009A4203D0126901309A42FBD15A699A42D8
:1056300003D0526901389A42FBD1003018BF0120D3
:1056400010BC70470120FBE7E0110020AFF30080A1
:10565000EFF30583DB05DB0D1BB9202383F31188F2
:105660007047202383F31188704700BFAFF3008099
:10567000FEE700BFAFF30080AFF30080AFF3008020
:105680004FF48053C4F2020300224FF0FF31986AB6
:105690002DE9804899629A62186919611A61D8687F
:1056A000D960DA60D8694FF4E041C4F2000140F0FB
:1056B0008050D861086840F480700860196A01F46D
:1056C0004071B1F5007F1EBF4FF4803119621A623C
:1056D0004FF48053C4F202038DB01A6A120407D447
:1056E0001A6A42F400721A621A6A42F400421A629A
:1056F0004FF48058C4F202080023D8F81820C54D92
:10570000C54FC4F2010342F00102C8F818201A681C
:1057100042F020021A60D8F81440049544F4BC0EFC
:10572000C8F814E04FF0904E00264FF0904545F237
:10573000055ACEF80460C6F2555A6FF40A6EC5F8E1
:1057400008E04FF48060C5F80CA04FF0A0094FF6B8
:10575000DF7AC5F814A0C4F60000C2F600094FF4C1
:10576000EE4AC5F820A04FF400616E6245F2555C28
:10577000C5F800904FF0800B4FF0FF354660C4F63F
:1057800000018560C5F2551C05F58035C0F2004B5F
:105790004FF440624FF4A053C0F80CC0C4F60002AE
:1057A0004561C4F6000306624662C0F800B04FF0DF
:1057B000FF304E608860C1F80CC04D610E624E62D1
:1057C0000E604FF0553156609060D16055611662A1
:1057D000566216605E609860D9605D6141F2601546
:1057E000C2F20005284600F1300B4FF48840C4F2A5
:1057F00000001E62049A5E621E600590874B41F2B3
:105800006010C2F200004FF4585E42F8043BC0F250
:105810006E1EC0F878E041F2601EC2F2000E0492E3
:10582000102105F1640300F1740C46618163049852
:10583000CEF81C30CEF83C30CEF84830CEF84430AC
:105840004FF46144764BCEF80400CEF20004059884
:10585000CEF84C304FF001094FF0400A05F15402E8
:10586000C02305F10C05CEF840C0CEF80C50CEF8A0
:105870001050CEF81820CEF82420CEF82020CEF8F4
:1058800030B0CEF834B0CEF874008EF80890CEF870
:105890002860CEF82CE0CEF850E084F82633C4F827
:1058A00084A1C4F804A0D8F81C304FF40050CEF204
:1058B000040043EA0903C8F81C3085684FF08043B0
:1058C00045EA090EC0F808E04FF46D4241F2BF20EE
:1058D0009862CEF200024FF0FF30D8624FF0805550
:1058E0009E615E63DE605E60C3F81490C3F8009052
:1058F000802384F81C33C4F8805125609660D068FA
:105900004FF6FF044FF440730440C0F2FA534EF6D2
:10591000F050CEF200002343D360C4684FF48053AC
:10592000CEF2000344F08074C4601D6845EA0905A6
:105930001D6007F11C04D1774FF0200B4FF0FF31B1
:1059400082F822B006A879620691FC613C620025CB
:105950003F6000247F60CDE90A45BE603F617F6102
:10596000BE627E67079608960996FFF7C9FA06A8F1
:10597000FFF79EFA2B4A089B79697B6702F11000BA
:1059800007F1300307F154049661106150613F64E0
:1059900007F158000B617C65234CB865F865234816
:1059A000BB6124F007040460214C2248BE6424F04B
:1059B00007040460204896601060D660C7F838A0DD
:1059C00087F84D60C7F86CA0BE667E6687F84E907B
:1059D00079647B6187F84C9086F3118862B6174929
:1059E000BA69174B916107F178000096D8214A46B1
:1059F000FFF78EFB134B83618BF3118841F260122A
:105A0000C2F20002137A4B4504BFD8F81C3043F4AD
:105A1000003319E060110020E0110020A06A0008A6
:105A200011350008481300207F1300207413002054
:105A30000040002068130020D14D0008606000087D
:105A4000714E00081062000808BFC8F81C3041F20F
:105A50006013C2F2000348F2B512996FC1F64E32DC
:105A60001D46A2FB01625B6F120B44F24001DA603B
:105A700059600121996001F5967119604FF0FF316D
:105A8000196202232B72002282F311884FF4A47151
:105A90000092064B0648074C074EDFF824A0DFF8BB
:105AA00024B0064F4022FFF733FB11E0F118000845
:105AB00010100020701300206C1300203013002001
:105AC000001000204413002041F28830FBF7C0FC96
:105AD0004FF40063C4F600031B699B04F4D441F245
